:020000040000FA
:100000000C9462000C948A000C948A000C948A0070
:100010000C948A000C948A000C948A000C948A0038
:100020000C948A000C948A000C948A000C948A0028
:100030000C948A000C948A000C948A000C948A0018
:100040000C94AA030C948A000C9478030C94520329
:100050000C948A000C948A000C948A000C948A00F8
:100060000C948A000C948A000000000024002700F1
:100070002A0000000000250028002B0000000000DE
:1000800023002600290004040404040404040202DA
:100090000202020203030303030301020408102007
:1000A0004080010204081020010204081020000012
:1000B0000008000201000003040700000000000027
:1000C0000000F40311241FBECFEFD8E0DEBFCDBF88
:1000D00022E0A4E8B1E001C01D92AD39B207E1F71A
:1000E00011E0A0E0B1E0E2E6F2E102C005900D927D
:1000F000A438B107D9F710E0C2E6D0E004C02197D8
:10010000FE010E943707C136D107C9F70E94820459
:100110000C942F090C94000096E0899FD0011124C3
:10012000A65DBD4F90967C936E935F9791E09196FC
:100130009C939197E0919702F0919802909196028A
:10014000992339F0309751F0811108C0809146020F
:100150000994309719F05C968C91FACF0895CF925C
:10016000DF92EF92FF920F931F9396E0899FF00129
:100170001124E65DFD4F11A2278D30A121303105FC
:1001800051F178F02230310509F451C023303105A6
:1001900009F452C01F910F91FF90EF90DF90CF9024
:1001A00008956623B9F361E070E00E948C002FB7D8
:1001B000F8948091890190918A01A0918B01B0916E
:1001C0008C012FBF8093820290938302A0938402BC
:1001D000B0938502DFCF9FB7F894C0908901D0908B
:1001E0008A01E0908B01F0908C019FBF0091820208
:1001F000109183022091840230918502C01AD10AA5
:10020000E20AF30A009194021091950230E020E096
:100210000C151D052E053F0550F462E070E01F919E
:100220000F91FF90EF90DF90CF900C948C006111B4
:10023000B1CF63E070E0F3CF70E060E0F0CF0895FD
:10024000AF92BF92CF92DF92EF92FF920F931F93E4
:10025000CF93DF936C017B018B01040F151FEB0122
:100260005E01AE18BF08C017D10759F06991D601D9
:10027000ED91FC910190F081E02DC6010995892B4B
:1002800079F7C501DF91CF911F910F91FF90EF900A
:10029000DF90CF90BF90AF900895FC01538D448DB7
:1002A000252F30E0842F90E0821B930B541710F021
:1002B000CF96089501970895FC01918D828D98172E
:1002C00061F0A28DAE0FBF2FB11D5D968C91928D06
:1002D0009F5F9F73928F90E008958FEF9FEF089537
:1002E000FC01918D828D981731F0828DE80FF11D00
:1002F000858D90E008958FEF9FEF0895FC01918D1B
:10030000228D892F90E0805C9F4F821B91098F7313
:10031000992708958DE891E00E947E0121E0892BC4
:1003200009F420E0822F089580E090E0892B29F0E5
:100330000E948A0181110C9400000895FC01A48D93
:10034000A80FB92FB11DA35ABF4F2C91848D90E0F7
:1003500001968F739927848FA689B7892C93A089DA
:10036000B1898C91837080648C93938D848D981364
:1003700006C00288F389E02D80818F7D80830895F7
:10038000EF92FF920F931F93CF93DF93EC0181E0E5
:10039000888F9B8D8C8D98131AC0E889F98980818C
:1003A00085FF15C09FB7F894EE89FF896083E889BF
:1003B000F98980818370806480839FBF81E090E0B1
:1003C000DF91CF911F910F91FF90EF900895F62E3E
:1003D0000B8D10E00F5F1F4F0F731127E02E8C8DD8
:1003E0008E110CC00FB607FCFACFE889F98980811D
:1003F00085FFF5CFCE010E949E01F1CFEB8DEC0F72
:10040000FD2FF11DE35AFF4FF0829FB7F8940B8F39
:10041000EA89FB8980818062CFCFCF93DF93EC01A3
:10042000888D8823B9F0AA89BB89E889F9898C91DC
:1004300085FD03C0808186FD0DC00FB607FCF7CF98
:100440008C9185FFF2CF808185FFEDCFCE010E9498
:100450009E01E9CFDF91CF910895833081F028F498
:10046000813099F08230A9F008958730A9F0883062
:10047000C9F08430B1F4809180008F7D03C08091F9
:1004800080008F7780938000089584B58F7784BD36
:10049000089584B58F7DFBCF8091B0008F778093D6
:1004A000B00008958091B0008F7DF9CFCF93DF9396
:1004B000282F30E0F901E255FF4F8491F901E6560B
:1004C000FF4FD491F901EA57FF4FC491CC23A1F01B
:1004D00081110E942D02EC2FF0E0EE0FFF1FE45877
:1004E000FF4FA591B491EC91ED2381E090E009F4E8
:1004F00080E0DF91CF91089580E090E0FACF862FE1
:100500000C9456021F93CF93DF93282F30E0F9010C
:10051000E255FF4F8491F901E656FF4FD491F9015E
:10052000EA57FF4FC491CC23A9F0162F81110E94E6
:100530002D02EC2FF0E0EE0FFF1FEE58FF4FA591BC
:10054000B4918FB7F894EC91111108C0D095DE23C7
:10055000DC938FBFDF91CF911F910895DE2BF8CFF1
:10056000862F642F0C948202CF93DF9390E0FC01DE
:10057000E656FF4F24918A579F4FFC0184918823B0
:10058000C9F090E0880F991FFC01E859FF4FA59131
:10059000B491FC01EE58FF4FC591D49161110DC08B
:1005A0009FB7F8948C91209582238C93888128237F
:1005B00028839FBFDF91CF910895623051F49FB798
:1005C000F8943C91822F809583238C93E8812E2B85
:1005D000EFCF8FB7F894EC912E2B2C938FBFEACFEF
:1005E000862F642F0C94B4020F931F93CF93DF9345
:1005F000EC0188819981009759F02A813B81261767
:10060000370730F081E0DF91CF911F910F9108956E
:100610008B016F5F7F4F0E946208009759F09983AA
:1006200088831B830A832C813D81232B59F7FC018E
:100630001082E8CF80E0E7CFEF92FF920F931F93F5
:10064000CF93DF93EC017B01FB0101900020E9F7E0
:1006500031978F01061B170BB8010E94F402288105
:100660003981811113C02115310519F0C9010E948A
:10067000D907198218821D821C821B821A82DF917F
:10068000CF911F910F91FF90EF9008951D830C83E0
:10069000B701C901DF91CF911F910F91FF90EF90AA
:1006A0000C9428091F920F920FB60F9211242F93CA
:1006B0003F934F935F936F937F938F939F93AF93EA
:1006C000BF93EF93FF938DE891E00E949E01FF910D
:1006D000EF91BF91AF919F918F917F916F915F91BA
:1006E0004F913F912F910F900FBE0F901F90189533
:1006F0001F920F920FB60F9211242F938F939F93F7
:10070000EF93FF93E0919D01F0919E018081E09134
:10071000A301F091A40182FD1BC090818091A601EC
:100720008F5F8F732091A701821741F0E091A6019E
:10073000F0E0E357FE4F958F8093A601FF91EF9174
:100740009F918F912F910F900FBE0F901F90189532
:100750008081F4CF1F920F920FB60F9211242F9326
:100760003F938F939F93AF93BF9380918901909113
:100770008A01A0918B01B0918C013091880123E016
:10078000230F2D3758F50196A11DB11D2093880127
:100790008093890190938A01A0938B01B0938C017F
:1007A0008091840190918501A0918601B09187018B
:1007B0000196A11DB11D8093840190938501A093A2
:1007C0008601B0938701BF91AF919F918F913F9127
:1007D0002F910F900FBE0F901F90189526E8230FB2
:1007E0000296A11DB11DD2CF1092900110928F01DF
:1007F00088EE93E0A0E0B0E08093910190939201A5
:10080000A0939301B09394018CE291E090938E01B8
:1008100080938D0185EC90E090939A0180939901EB
:1008200084EC90E090939C0180939B0180EC90E09D
:1008300090939E0180939D0181EC90E09093A001A4
:1008400080939F0182EC90E09093A2018093A1019C
:1008500086EC90E09093A4018093A3011092A601EE
:100860001092A7011092A8011092A90110922C02D7
:100870001092300210922F02109231028EE391E01A
:1008800090932B0280932A02E6E4F2E01082148215
:1008900013821582369682E0E238F807B9F786E0CF
:1008A00091E090938D0280938C0280E091E0909390
:1008B0008F0280938E0284E08093900286E0809382
:1008C00091028AE091E090938B0280938A028AE001
:1008D00090E0909393028093920284EF91E0909342
:1008E00095028093940210929802109297021092AF
:1008F000860210928702109288021092890210924A
:1009000096020895CF93DF9300D000D000D0CDB7EA
:10091000DEB7789484B5826084BD84B5816084BD7F
:1009200085B5826085BD85B5816085BD80916E008D
:10093000816080936E0010928100809181008260BE
:1009400080938100809181008160809381008091FB
:1009500080008160809380008091B10084608093EA
:10096000B1008091B00081608093B00080917A00E6
:10097000846080937A0080917A00826080937A000C
:1009800080917A00816080937A0080917A008068FB
:1009900080937A001092C100E0919D01F0919E0138
:1009A00082E08083E0919901F0919A011082E091B8
:1009B0009B01F0919C018FEC80831092A501E09146
:1009C000A101F091A20186E08083E0919F01F09166
:1009D000A001808180618083E0919F01F091A0015E
:1009E000808188608083E0919F01F091A0018081E7
:1009F00080688083E0919F01F091A00180818F7DCC
:100A00008083412C512C3201439430E0A32E30E0FE
:100A1000B32E46E050E064E471E08DE891E00E947E
:100A2000200151E0509396028FB7F89440918901CC
:100A300050918A0160918B0170918C018FBF8091E0
:100A4000860290918702A0918802B0918902481B8A
:100A5000590B6A0B7B0B8091920290919302B0E04C
:100A6000A0E084179507A607B707D8F610E0809195
:100A70009002181760F4E0918C02F0918D02E10F62
:100A8000F11D62E080810E94B4021F5FF0CF312C23
:100A900080919102381608F061C0E32CF12CE091AE
:100AA0008E02F0918F02EE0DFF1D61E080810E94A9
:100AB000B402E0918E02F0918F02EE0DFF1D60E016
:100AC00080810E948202D301C201032C04C0880FDE
:100AD000991FAA1FBB1F0A94D2F74C016C01C09446
:100AE000D094212C80919002281608F5022D10E058
:100AF000E0918C02F0918D02E00FF11F80810E9445
:100B000056020C5F1F4F000F111FF801E65DFD4FED
:100B1000892B41F48081918188299929918380834F
:100B20002394E0CF808191818C219D21F7CFE091AA
:100B30008E02F0918F02EE0DFF1D61E080810E9418
:100B4000820280918E0290918F02E80EF91E60E081
:100B5000F70180810E94B40233949ACF0AE212E036
:100B60007801F701878D90A1892B31F4148E8FEFD6
:100B70009FEF968F858F11A296E0E90EF11CE6E6B5
:100B8000F2E0EE15FF0569F7D12C80919002D8169E
:100B900008F053C0C12C8D2C912C880C991CC401D9
:100BA0008E5C9D4F4C0120919102C21608F043C00B
:100BB000F401608171810C2C02C0769567950A94CE
:100BC000E2F7D29E900111242C0D311DEAE2F2E0F1
:100BD00080E0458D568D2417350709F40FC18F5FCE
:100BE00036968A30B1F760FF24C0EAE2F2E090E086
:100BF00080E0448D411118C0E0918A02F0918B028F
:100C0000E20FF31F408156E0589FF001599FF00D0D
:100C10001124E65DFD4F448F368F258F10A2178E6D
:100C200061E00E94AF0005C0019636968A309105BA
:100C300001F7C394B8CFD394A8CF80E0F80191A175
:100C40009111892F0A5F1F4F0E151F05B9F79FB726
:100C5000F8944091890150918A0160918B017091C3
:100C60008C019FBF40938602509387026093880255
:100C700070938902882309F4D4CE80914B02882393
:100C800009F4CFCE8091490290914A02019709F070
:100C9000C8CE10914602112309F4C3CE1A821982DC
:100CA0001C821B821E821D8270E060E0CE010196D4
:100CB0000E94F40229813A81811198C021153105E1
:100CC00019F0C9010E94D9071A8219821E821D8259
:100CD0001C821B826BE471E0103309F45EC06DE48A
:100CE00071E0113309F459C06FE471E0123309F473
:100CF00054C061E571E0133309F44FC063E571E05E
:100D0000143309F44AC065E571E0153309F445C0B0
:100D100067E571E0163309F440C069E571E0173307
:100D2000E1F16BE571E01833C1F16DE571E0193364
:100D3000A1F16FE571E01A3281F161E671E01F32D5
:100D400061F165E771E01B3241F16DE771E01D3241
:100D500021F163E671E0133401F168E671E01D33BF
:100D6000E1F06AE671E01E32C1F06CE671E0123526
:100D7000A1F061E771E01E3681F064E771E01137A0
:100D800061F067E771E01D3441F06BE771E0143406
:100D900021F0103531F46FE771E0CE0101960E9429
:100DA0001C0369817A816115710571F04D815E8145
:100DB0008DE891E00E94200142E050E061E871E09E
:100DC0008DE891E00E94200189819A81009711F0BD
:100DD0000E94D907A114B10409F41BCE0E948A0114
:100DE000882309F412CE0E9400000FCE1E821D82BD
:100DF00063E871E0C9010E9428096CCF617011CFCE
:100E00002F923F924F925F926F927F928F929F921A
:100E1000AF92BF92CF92DF92EF92FF920F931F9308
:100E2000CF93DF93CDB7DEB7CA1BDB0B0FB6F894B9
:100E3000DEBF0FBECDBF09942A88398848885F84F9
:100E40006E847D848C849B84AA84B984C884DF806A
:100E5000EE80FD800C811B81AA81B981CE0FD11D4E
:100E60000FB6F894DEBF0FBECDBFED010895EE0FB3
:100E7000FF1F0590F491E02D09940F931F93CF93DA
:100E8000DF938230910510F482E090E0E0919B02C4
:100E9000F0919C0230E020E0B0E0A0E0309799F4BF
:100EA0002115310509F44AC0281B390B24303105BE
:100EB000D8F58A819B816115710589F1FB019383C6
:100EC0008283FE0111C04081518102811381481744
:100ED0005907E0F04817590799F4109761F01296F6
:100EE0000C93129713961C933296CF01DF91CF91FA
:100EF0001F910F91089500939B0210939C02F4CFD1
:100F00002115310551F04217530738F0A901DB01D3
:100F10009A01BD01DF01F801C1CFEF01F9CF909334
:100F20009C0280939B02CDCFFE01E20FF31F8193C1
:100F300091932250310939832883D7CF2091990288
:100F400030919A02232B41F4209124013091250104
:100F500030939A022093990220912201309123012B
:100F60002115310541F42DB73EB74091260150912E
:100F70002701241B350BE0919902F0919A02E217A8
:100F8000F307A0F42E1B3F0B2817390778F0AC01AC
:100F90004E5F5F4F2417350748F04E0F5F1F509389
:100FA0009A0240939902819391939FCFF0E0E0E001
:100FB0009CCFCF93DF930097E9F0FC013297138227
:100FC0001282A0919B02B0919C02ED0130E020E0E2
:100FD0001097A1F420813181820F931F20919902F3
:100FE00030919A022817390709F061C0F0939A02EC
:100FF000E0939902DF91CF910895EA01CE17DF07C0
:10100000E8F54A815B819E0141155105B1F7E9017F
:10101000FB83EA8349915991C40FD51FEC17FD0753
:1010200061F4808191810296840F951FE901998373
:101030008883828193819B838A83F0E0E0E012962B
:101040008D919C9113970097B9F52D913C91119733
:10105000CD010296820F931F2091990230919A023E
:101060002817390739F6309751F510929C021092E3
:101070009B02B0939A02A0939902BCCFD383C28300
:1010800040815181840F951FC817D90761F44E5FC5
:101090005F4F88819981480F591F518340838A810E
:1010A0009B81938382832115310509F0B0CFF093A2
:1010B0009C02E0939B029ECFFD01DC01C0CF138216
:1010C0001282D7CFB0E0A0E0E8E6F8E00C94020787
:1010D0008C01009751F4CB010E943D078C01C8019F
:1010E000CDB7DEB7E0E10C941E07FC01E60FF71F59
:1010F0009C0122503109E217F30708F49DC0D90181
:10110000CD91DC911197C617D70798F0C530D1055E
:1011100030F3CE0104978617970708F3C61BD70B49
:101120002297C193D1936D937C93CF010E94D907ED
:10113000D6CF5B01AC1ABD0A4C018C0E9D1EA0914E
:101140009B02B0919C02512C412CF12CE12C109768
:1011500031F58091990290919A028815990509F0CC
:101160005CC04616570608F058C080912201909145
:101170002301009741F48DB79EB74091260150910D
:101180002701841B950BE817F90708F055C0F09369
:101190009A02E0939902F90171836083A0CF8D9147
:1011A0009C91119712966C90129713967C901397BE
:1011B000A815B90559F56C0142E0C40ED11CCA143A
:1011C000DB0420F1AC014A195B09DA01129615978C
:1011D00080F06282738251834083D9016D937C9346
:1011E000E114F10471F0D7011396FC93EE9312977A
:1011F00076CF22968C0F9D1FF90191838083F30196
:10120000EFCFF0939C02E0939B0269CF48165906FA
:1012100008F42C017D01D3019ACFCB010E943D0738
:101220007C01009749F0AE01B8010E941F09C80176
:101230000E94D907870153CF10E000E050CFFB0197
:10124000DC0102C001900D9241505040D8F7089542
:10125000FB01DC0101900D920020E1F70895F89464
:10126000FFCF060708090A0B020304054337383984
:101270002A2F443435362D4D503132332B6E5230B7
:101280002E3D2B7100009D02800000000000C00177
:1012900020014D010D027E015C0170010000000083
:1012A000F002B0027F024B6579203A200030003115
:1012B0000032003300340035003600370038003982
:1012C000002A002F004F4E2F43003D002E00526F8A
:1012D0006F74004D2D004D2B004D5243002B2F2DD0
:0612E0000025000D0A00CC
:107E0000112484B714BE81FFF0D085E080938100F7
:107E100082E08093C00088E18093C10086E0809377
:107E2000C20080E18093C4008EE0C9D0259A86E02C
:107E300020E33CEF91E0309385002093840096BBD3
:107E4000B09BFECF1D9AA8958150A9F7CC24DD24C4
:107E500088248394B5E0AB2EA1E19A2EF3E0BF2EE7
:107E6000A2D0813461F49FD0082FAFD0023811F036
:107E7000013811F484E001C083E08DD089C08234E0
:107E800011F484E103C0853419F485E0A6D080C0E4
:107E9000853579F488D0E82EFF2485D0082F10E0AE
:107EA000102F00270E291F29000F111F8ED06801E7
:107EB0006FC0863521F484E090D080E0DECF843638
:107EC00009F040C070D06FD0082F6DD080E0C81688
:107ED00080E7D80618F4F601B7BEE895C0E0D1E017
:107EE00062D089930C17E1F7F0E0CF16F0E7DF06D8
:107EF00018F0F601B7BEE89568D007B600FCFDCFD4
:107F0000A601A0E0B1E02C9130E011968C91119780
:107F100090E0982F8827822B932B1296FA010C0160
:107F200087BEE89511244E5F5F4FF1E0A038BF0790
:107F300051F7F601A7BEE89507B600FCFDCF97BE46
:107F4000E89526C08437B1F42ED02DD0F82E2BD052
:107F50003CD0F601EF2C8F010F5F1F4F84911BD097
:107F6000EA94F801C1F70894C11CD11CFA94CF0C13
:107F7000D11C0EC0853739F428D08EE10CD085E9AC
:107F80000AD08FE07ACF813511F488E018D01DD067
:107F900080E101D065CF982F8091C00085FFFCCF94
:107FA0009093C60008958091C00087FFFCCF809118
:107FB000C00084FD01C0A8958091C6000895E0E648
:107FC000F0E098E1908380830895EDDF803219F02E
:107FD00088E0F5DFFFCF84E1DECF1F93182FE3DFCA
:107FE0001150E9F7F2DF1F91089580E0E8DFEE27F6
:047FF000FF270994CA
:027FFE00040479
:00000001FF
